{
  "contractName": "LiquidityPool",
  "abi": [
    {
      "inputs": [
        {
          "internalType": "string",
          "name": "_regionName",
          "type": "string"
        },
        {
          "internalType": "address",
          "name": "_factoryOwner",
          "type": "address"
        },
        {
          "internalType": "address",
          "name": "_stakingTokenAddress",
          "type": "address"
        },
        {
          "internalType": "address",
          "name": "_poolFactory",
          "type": "address"
        }
      ],
      "stateMutability": "nonpayable",
      "type": "constructor"
    },
    {
      "anonymous": false,
      "inputs": [
        {
          "indexed": false,
          "internalType": "uint256",
          "name": "newApyBasisPoints",
          "type": "uint256"
        }
      ],
      "name": "ApyUpdated",
      "type": "event"
    },
    {
      "anonymous": false,
      "inputs": [
        {
          "indexed": true,
          "internalType": "address",
          "name": "user",
          "type": "address"
        },
        {
          "indexed": false,
          "internalType": "uint256",
          "name": "amountRepaid",
          "type": "uint256"
        }
      ],
      "name": "DebtRepaid",
      "type": "event"
    },
    {
      "anonymous": false,
      "inputs": [
        {
          "indexed": true,
          "internalType": "address",
          "name": "user",
          "type": "address"
        },
        {
          "indexed": true,
          "internalType": "address",
          "name": "merchant",
          "type": "address"
        },
        {
          "indexed": false,
          "internalType": "uint256",
          "name": "amount",
          "type": "uint256"
        },
        {
          "indexed": false,
          "internalType": "address",
          "name": "poolUsed",
          "type": "address"
        }
      ],
      "name": "FallbackPaymentMade",
      "type": "event"
    },
    {
      "anonymous": false,
      "inputs": [
        {
          "indexed": false,
          "internalType": "enum LiquidityPool.PoolStatusContract",
          "name": "newStatus",
          "type": "uint8"
        }
      ],
      "name": "PoolStatusChanged",
      "type": "event"
    },
    {
      "anonymous": false,
      "inputs": [
        {
          "indexed": false,
          "internalType": "uint256",
          "name": "amount",
          "type": "uint256"
        }
      ],
      "name": "RewardsAdded",
      "type": "event"
    },
    {
      "anonymous": false,
      "inputs": [
        {
          "indexed": false,
          "internalType": "uint256",
          "name": "totalRewardsDistributed",
          "type": "uint256"
        },
        {
          "indexed": false,
          "internalType": "uint256",
          "name": "timestamp",
          "type": "uint256"
        }
      ],
      "name": "RewardsDistributed",
      "type": "event"
    },
    {
      "anonymous": false,
      "inputs": [
        {
          "indexed": true,
          "internalType": "address",
          "name": "user",
          "type": "address"
        },
        {
          "indexed": false,
          "internalType": "uint256",
          "name": "amountStaked",
          "type": "uint256"
        },
        {
          "indexed": false,
          "internalType": "uint256",
          "name": "lpTokensReceived",
          "type": "uint256"
        }
      ],
      "name": "Staked",
      "type": "event"
    },
    {
      "anonymous": false,
      "inputs": [
        {
          "indexed": true,
          "internalType": "address",
          "name": "user",
          "type": "address"
        },
        {
          "indexed": false,
          "internalType": "uint256",
          "name": "amountUnstaked",
          "type": "uint256"
        },
        {
          "indexed": false,
          "internalType": "uint256",
          "name": "lpTokensBurned",
          "type": "uint256"
        }
      ],
      "name": "Unstaked",
      "type": "event"
    },
    {
      "inputs": [],
      "name": "BASIS_POINTS",
      "outputs": [
        {
          "internalType": "uint256",
          "name": "",
          "type": "uint256"
        }
      ],
      "stateMutability": "view",
      "type": "function"
    },
    {
      "inputs": [],
      "name": "COLLATERAL_PERCENTAGE_BP",
      "outputs": [
        {
          "internalType": "uint256",
          "name": "",
          "type": "uint256"
        }
      ],
      "stateMutability": "view",
      "type": "function"
    },
    {
      "inputs": [],
      "name": "UNSTAKE_TIME_LOCK_DURATION",
      "outputs": [
        {
          "internalType": "uint256",
          "name": "",
          "type": "uint256"
        }
      ],
      "stateMutability": "view",
      "type": "function"
    },
    {
      "inputs": [],
      "name": "apyBasisPoints",
      "outputs": [
        {
          "internalType": "uint256",
          "name": "",
          "type": "uint256"
        }
      ],
      "stateMutability": "view",
      "type": "function"
    },
    {
      "inputs": [
        {
          "internalType": "address",
          "name": "",
          "type": "address"
        }
      ],
      "name": "debtRelatedUnstakeTimelock",
      "outputs": [
        {
          "internalType": "uint256",
          "name": "",
          "type": "uint256"
        }
      ],
      "stateMutability": "view",
      "type": "function"
    },
    {
      "inputs": [],
      "name": "factoryOwner",
      "outputs": [
        {
          "internalType": "address",
          "name": "",
          "type": "address"
        }
      ],
      "stateMutability": "view",
      "type": "function"
    },
    {
      "inputs": [],
      "name": "lpToken",
      "outputs": [
        {
          "internalType": "contract LPERC20",
          "name": "",
          "type": "address"
        }
      ],
      "stateMutability": "view",
      "type": "function"
    },
    {
      "inputs": [],
      "name": "poolFactory",
      "outputs": [
        {
          "internalType": "address",
          "name": "",
          "type": "address"
        }
      ],
      "stateMutability": "view",
      "type": "function"
    },
    {
      "inputs": [],
      "name": "regionName",
      "outputs": [
        {
          "internalType": "string",
          "name": "",
          "type": "string"
        }
      ],
      "stateMutability": "view",
      "type": "function"
    },
    {
      "inputs": [],
      "name": "rewardsPot",
      "outputs": [
        {
          "internalType": "uint256",
          "name": "",
          "type": "uint256"
        }
      ],
      "stateMutability": "view",
      "type": "function"
    },
    {
      "inputs": [
        {
          "internalType": "address",
          "name": "",
          "type": "address"
        }
      ],
      "name": "stakers",
      "outputs": [
        {
          "internalType": "uint256",
          "name": "stakedAmount",
          "type": "uint256"
        },
        {
          "internalType": "uint256",
          "name": "collateralAmount",
          "type": "uint256"
        },
        {
          "internalType": "uint256",
          "name": "lpTokensMinted",
          "type": "uint256"
        },
        {
          "internalType": "uint256",
          "name": "stakeTimestamp",
          "type": "uint256"
        }
      ],
      "stateMutability": "view",
      "type": "function"
    },
    {
      "inputs": [],
      "name": "stakingToken",
      "outputs": [
        {
          "internalType": "contract IERC20",
          "name": "",
          "type": "address"
        }
      ],
      "stateMutability": "view",
      "type": "function"
    },
    {
      "inputs": [],
      "name": "status",
      "outputs": [
        {
          "internalType": "enum LiquidityPool.PoolStatusContract",
          "name": "",
          "type": "uint8"
        }
      ],
      "stateMutability": "view",
      "type": "function"
    },
    {
      "inputs": [],
      "name": "totalDebt",
      "outputs": [
        {
          "internalType": "uint256",
          "name": "",
          "type": "uint256"
        }
      ],
      "stateMutability": "view",
      "type": "function"
    },
    {
      "inputs": [],
      "name": "totalLiquidityStaked",
      "outputs": [
        {
          "internalType": "uint256",
          "name": "",
          "type": "uint256"
        }
      ],
      "stateMutability": "view",
      "type": "function"
    },
    {
      "inputs": [
        {
          "internalType": "address",
          "name": "",
          "type": "address"
        },
        {
          "internalType": "uint256",
          "name": "",
          "type": "uint256"
        }
      ],
      "name": "userDebts",
      "outputs": [
        {
          "internalType": "address",
          "name": "user",
          "type": "address"
        },
        {
          "internalType": "address",
          "name": "merchantAddress",
          "type": "address"
        },
        {
          "internalType": "uint256",
          "name": "amount",
          "type": "uint256"
        },
        {
          "internalType": "uint256",
          "name": "timestamp",
          "type": "uint256"
        },
        {
          "internalType": "bool",
          "name": "isRepaid",
          "type": "bool"
        }
      ],
      "stateMutability": "view",
      "type": "function"
    },
    {
      "inputs": [],
      "name": "getPoolStatus",
      "outputs": [
        {
          "internalType": "enum LiquidityPool.PoolStatusContract",
          "name": "",
          "type": "uint8"
        }
      ],
      "stateMutability": "view",
      "type": "function"
    },
    {
      "inputs": [],
      "name": "totalLiquidity",
      "outputs": [
        {
          "internalType": "uint256",
          "name": "",
          "type": "uint256"
        }
      ],
      "stateMutability": "view",
      "type": "function"
    },
    {
      "inputs": [],
      "name": "apy",
      "outputs": [
        {
          "internalType": "uint256",
          "name": "",
          "type": "uint256"
        }
      ],
      "stateMutability": "view",
      "type": "function"
    },
    {
      "inputs": [],
      "name": "lpTokenSupply",
      "outputs": [
        {
          "internalType": "uint256",
          "name": "",
          "type": "uint256"
        }
      ],
      "stateMutability": "view",
      "type": "function"
    },
    {
      "inputs": [
        {
          "internalType": "address",
          "name": "_user",
          "type": "address"
        }
      ],
      "name": "getStake",
      "outputs": [
        {
          "components": [
            {
              "internalType": "uint256",
              "name": "stakedAmount",
              "type": "uint256"
            },
            {
              "internalType": "uint256",
              "name": "collateralAmount",
              "type": "uint256"
            },
            {
              "internalType": "uint256",
              "name": "lpTokensMinted",
              "type": "uint256"
            },
            {
              "internalType": "uint256",
              "name": "stakeTimestamp",
              "type": "uint256"
            }
          ],
          "internalType": "struct Stake",
          "name": "",
          "type": "tuple"
        }
      ],
      "stateMutability": "view",
      "type": "function"
    },
    {
      "inputs": [
        {
          "internalType": "address",
          "name": "_user",
          "type": "address"
        }
      ],
      "name": "getUserDebts",
      "outputs": [
        {
          "components": [
            {
              "internalType": "address",
              "name": "user",
              "type": "address"
            },
            {
              "internalType": "address",
              "name": "merchantAddress",
              "type": "address"
            },
            {
              "internalType": "uint256",
              "name": "amount",
              "type": "uint256"
            },
            {
              "internalType": "uint256",
              "name": "timestamp",
              "type": "uint256"
            },
            {
              "internalType": "bool",
              "name": "isRepaid",
              "type": "bool"
            }
          ],
          "internalType": "struct LiquidityPool.Debt[]",
          "name": "",
          "type": "tuple[]"
        }
      ],
      "stateMutability": "view",
      "type": "function"
    },
    {
      "inputs": [
        {
          "internalType": "address",
          "name": "_user",
          "type": "address"
        }
      ],
      "name": "getCollateralAvailable",
      "outputs": [
        {
          "internalType": "uint256",
          "name": "",
          "type": "uint256"
        }
      ],
      "stateMutability": "view",
      "type": "function"
    },
    {
      "inputs": [
        {
          "internalType": "address",
          "name": "_user",
          "type": "address"
        }
      ],
      "name": "getActiveDebtAmount",
      "outputs": [
        {
          "internalType": "uint256",
          "name": "",
          "type": "uint256"
        }
      ],
      "stateMutability": "view",
      "type": "function"
    },
    {
      "inputs": [],
      "name": "getTotalDebt",
      "outputs": [
        {
          "internalType": "uint256",
          "name": "",
          "type": "uint256"
        }
      ],
      "stateMutability": "view",
      "type": "function"
    },
    {
      "inputs": [],
      "name": "toggleStatus",
      "outputs": [],
      "stateMutability": "nonpayable",
      "type": "function"
    },
    {
      "inputs": [
        {
          "internalType": "enum LiquidityPool.PoolStatusContract",
          "name": "_newStatus",
          "type": "uint8"
        }
      ],
      "name": "setStatus",
      "outputs": [],
      "stateMutability": "nonpayable",
      "type": "function"
    },
    {
      "inputs": [
        {
          "internalType": "uint256",
          "name": "_newApyBasisPoints",
          "type": "uint256"
        }
      ],
      "name": "setApy",
      "outputs": [],
      "stateMutability": "nonpayable",
      "type": "function"
    },
    {
      "inputs": [
        {
          "internalType": "uint256",
          "name": "amount",
          "type": "uint256"
        }
      ],
      "name": "addRewardsToPot",
      "outputs": [],
      "stateMutability": "nonpayable",
      "type": "function"
    },
    {
      "inputs": [
        {
          "internalType": "uint256",
          "name": "_amount",
          "type": "uint256"
        }
      ],
      "name": "stake",
      "outputs": [],
      "stateMutability": "nonpayable",
      "type": "function"
    },
    {
      "inputs": [
        {
          "internalType": "uint256",
          "name": "_lpTokenAmount",
          "type": "uint256"
        }
      ],
      "name": "unstake",
      "outputs": [],
      "stateMutability": "nonpayable",
      "type": "function"
    },
    {
      "inputs": [
        {
          "internalType": "address",
          "name": "user",
          "type": "address"
        }
      ],
      "name": "getTotalCollateralAcrossPools",
      "outputs": [
        {
          "internalType": "uint256",
          "name": "",
          "type": "uint256"
        }
      ],
      "stateMutability": "view",
      "type": "function"
    },
    {
      "inputs": [
        {
          "internalType": "address",
          "name": "_merchantAddress",
          "type": "address"
        },
        {
          "internalType": "uint256",
          "name": "_amount",
          "type": "uint256"
        }
      ],
      "name": "fallbackPay",
      "outputs": [],
      "stateMutability": "nonpayable",
      "type": "function"
    },
    {
      "inputs": [
        {
          "internalType": "uint256",
          "name": "_debtIndex",
          "type": "uint256"
        },
        {
          "internalType": "uint256",
          "name": "_amount",
          "type": "uint256"
        }
      ],
      "name": "repayDebt",
      "outputs": [],
      "stateMutability": "nonpayable",
      "type": "function"
    },
    {
      "inputs": [],
      "name": "distributeRewards",
      "outputs": [],
      "stateMutability": "nonpayable",
      "type": "function"
    },
    {
      "inputs": [],
      "name": "emergencyWithdraw",
      "outputs": [],
      "stateMutability": "nonpayable",
      "type": "function"
    },
    {
      "inputs": [
        {
          "internalType": "address",
          "name": "targetPool",
          "type": "address"
        },
        {
          "internalType": "address",
          "name": "user",
          "type": "address"
        },
        {
          "internalType": "uint256",
          "name": "amount",
          "type": "uint256"
        }
      ],
      "name": "transferLiquidityToPool",
      "outputs": [],
      "stateMutability": "nonpayable",
      "type": "function"
    },
    {
      "inputs": [
        {
          "internalType": "address",
          "name": "targetPool",
          "type": "address"
        },
        {
          "internalType": "address",
          "name": "user",
          "type": "address"
        },
        {
          "internalType": "uint256",
          "name": "amount",
          "type": "uint256"
        }
      ],
      "name": "contributeLiquidityForPayment",
      "outputs": [],
      "stateMutability": "nonpayable",
      "type": "function"
    },
    {
      "inputs": [
        {
          "internalType": "uint256",
          "name": "amount",
          "type": "uint256"
        }
      ],
      "name": "receiveLiquidity",
      "outputs": [],
      "stateMutability": "nonpayable",
      "type": "function"
    },
    {
      "inputs": [
        {
          "internalType": "address",
          "name": "user",
          "type": "address"
        }
      ],
      "name": "getStakedAmount",
      "outputs": [
        {
          "internalType": "uint256",
          "name": "",
          "type": "uint256"
        }
      ],
      "stateMutability": "view",
      "type": "function"
    }
  ],
  "bytecode": "0x60c080604052346103cd57614398803803809161001c82856103d2565b833981016080828203126103cd5781516001600160401b0381116103cd57820181601f820112156103cd578051906001600160401b0382116102b85760405191610070601f8201601f1916602001846103d2565b8083526020830193602082840101116103cd5783602061009093016103f5565b61009c60208401610418565b926100b560606100ae60408401610418565b9201610418565b6101f46006558251946001600160401b0386116102b857600054600181811c911680156103c3575b60208210146103ad57601f8111610349575b50602095601f81116001146102d9579160249391836101bd96946101ac996000916102ce575b508160011b916000199060031b1c1916176000555b60805260a05260018060a01b031660018060a01b0319600154161760015560ff1960045416600455604051936741656769734c502d60c01b602086015261018d602886845161017c81848401876103f5565b81010301601f1981018752866103d2565b60405195869263414c502d60e01b6020850152518092858501906103f5565b81010301601f1981018452836103d2565b60405191610e8291828401916001600160401b038311858410176102b8576101f7610205928695613516873960608552606085019061042c565b90838203602085015261042c565b9060403091015203906000f080156102ac57600280546001600160a01b0319166001600160a01b03929092169190911790556040516130c4908161045282396080518181816102430152818161041501528181610d85015281816110ee0152818161117d015281816115270152611861015260a0518181816109860152818161113301528181611350015281816118e4015281816124080152818161265e01526128d70152f35b6040513d6000823e3d90fd5b634e487b7160e01b600052604160045260246000fd5b905085015138610115565b601f19811660008052876000209060005b81811061033157508260249694926101ac9a6101bd99979560019410610318575b5050811b0160005561012a565b87015160001960f88460031b161c19169055388061030b565b878a015183556020998a0199600190930192016102ea565b600080527f290decd9548b62a8d60345a988386fc84ba6bc95484008f6362f93160ef3e563601f880160051c810191602089106103a3575b601f0160051c01905b81811061039757506100ef565b6000815560010161038a565b9091508190610381565b634e487b7160e01b600052602260045260246000fd5b90607f16906100dd565b600080fd5b601f909101601f19168101906001600160401b038211908210176102b857604052565b60005b8381106104085750506000910152565b81810151838201526020016103f8565b51906001600160a01b03821682036103cd57565b90602091610445815180928185528580860191016103f5565b601f01601f191601019056fe6080604052600436101561001257600080fd5b6000803560e01c8063015cb0a514611c955780630328c7b514611b875780630ff3420114611b01578063117f910d146119c757806315770f92146101f55780631a28b995146118b3578063200d2ed21461083b5780632a7b8998146118235780632e17de78146115995780632e49d78b146115035780632fdfbb3a1461130557806334ce998a146112e7578063365e84d51461125657806336e2af731461121d5780633b3f5e36146111625780633bcfc4b8146107c15780634219dc401461111d5780634273601c146110d85780634a3a743f14610f8c5780634da6a55614610f5357806357a27ced14610f365780635fcbd28514610f0d5780636f4a2cd014610d6e57806372f702f314610d455780637404a1fd14610d27578063748b298b14610cfb57806378c8390c14610bc057806379c94ac6146109025780637a766460146108655780637f79496c1461083b5780639168ae72146107df57806393a6983d146107c1578063a694fc3a1461050f578063bb9f661c146104cc578063c02857bd146103fe578063c2dbcb14146103e0578063db2e21bc14610230578063e1f1c4a714610213578063e86f6a0d146101f55763fc7b9c18146101d557600080fd5b346101f257806003193601126101f2576020600754604051908152f35b80fd5b50346101f257806003193601126101f2576020600354604051908152f35b50346101f257806003193601126101f25760206040516127108152f35b50346101f257806003193601126101f2577f0000000000000000000000000000000000000000000000000000000000000000610276336001600160a01b03831614612244565b60ff6004541660038110156103cc5760020361038f576001546040516370a0823160e01b81523060048201526001600160a01b039091169190602081602481865afa90811561038457849161034d575b50806102d0578380f35b60405163a9059cbb60e01b81526001600160a01b039290921660048301526024820152906020908290604490829086905af1801561034257610313575b80808380f35b6103349060203d60201161033b575b61032c8183611fd2565b810190612108565b503861030d565b503d610322565b6040513d84823e3d90fd5b90506020813d60201161037c575b8161036860209383611fd2565b810103126103775751386102c6565b600080fd5b3d915061035b565b6040513d86823e3d90fd5b60405162461bcd60e51b8152602060048201526015602482015274506f6f6c206d75737420626520696e61637469766560581b6044820152606490fd5b634e487b7160e01b83526021600452602483fd5b50346101f257806003193601126101f2576020604051620151808152f35b50346101f257806003193601126101f257610443337f00000000000000000000000000000000000000000000000000000000000000006001600160a01b031614612244565b60ff6004541660038110156104b857806104a25750600160ff1960045416176004555b7fe2331ea4aa77bd9050f22ec79661d3d41e161cd0fc67a06e3679fedf8a3a1cfa61049c60ff6004541660405191829182611ff4565b0390a180f35b6001036104665760ff1960045416600455610466565b634e487b7160e01b82526021600452602482fd5b50346101f25760403660031901126101f2576104e6611f6e565b60ff6004541660038110156103cc579061050361050c9215612089565b6024359061255b565b80f35b50346101f25760203660031901126101f25760043560ff6004541660038110156103cc5761053d9015612089565b801561054981156120c7565b6001546040516323b872dd60e01b815233600482015230602482015260448101849052906020908290606490829088906001600160a01b03165af180156103845761059b9185916107a2575b50612348565b6107d08202908282046107d014171561078e576002546040516318160ddd60e01b81526001600160a01b0390911690602081600481855afa908115610783578591610751575b506106da575081905b3384526008602052604084209061060284835461216f565b8255610617612710600184019204825461216f565b90556002810161062883825461216f565b905560034291015561063c8260035461216f565b60035560025483906001600160a01b0316803b156106d6576040516340c10f1960e01b8152336004820152602481018490529082908290604490829084905af18015610342576106bd575b505060405191825260208201527f1449c6dd7851abc30abf37f57715f492010519147cc2652fbc38202c18a6ee9060403392a280f35b816106c791611fd2565b6106d2578238610687565b8280fd5b5080fd5b6020600491604051928380926318160ddd60e01b82525afa90811561038457849161071d575b5061070e61071791846122c9565b600354906122dc565b906105ea565b90506020813d602011610749575b8161073860209383611fd2565b81010312610377575161070e610700565b3d915061072b565b90506020813d60201161077b575b8161076c60209383611fd2565b810103126103775751386105e1565b3d915061075f565b6040513d87823e3d90fd5b634e487b7160e01b83526011600452602483fd5b6107bb915060203d60201161033b5761032c8183611fd2565b38610595565b50346101f257806003193601126101f2576020600654604051908152f35b50346101f25760203660031901126101f2576080906040906001600160a01b03610807611f6e565b1681526008602052208054906001810154906003600282015491015491604051938452602084015260408301526060820152f35b50346101f257806003193601126101f25761086160ff6004541660405191829182611ff4565b0390f35b50346101f25760203660031901126101f2576040608091610884611f6e565b816060845161089281611fb6565b8281528260208201528286820152015260018060a01b031681526008602052206040516108be81611fb6565b815491828252600181015460208301908152606060036002840154936040860194855201549301928352604051938452516020840152516040830152516060820152f35b50346101f2576109113661201d565b919061091e33151561217c565b6109298315156120c7565b61093783600354101561238c565b6001600160a01b03168352600860205260408320546107d08082029180159083049091141715610bac5782612710610971920410156122fc565b60405163673a2a1f60e01b81529183836004817f00000000000000000000000000000000000000000000000000000000000000006001600160a01b03165afa928315610384578493610b88575b508392845b8151811015610b7f57336001600160a01b036109df838561215b565b5116148015610b5a575b6109f5576001016109c3565b505090915060015b15610b155760015460405163a9059cbb60e01b81526001600160a01b038481166004830152602482018490529091602091839160449183918991165af1908115610384578491610af6575b5015610ab1578291610a5c82600354612120565b6003556001600160a01b031690813b15610aad578291602483926040519485938492631a28b99560e01b845260048401525af1801561034257610a9c5750f35b81610aa691611fd2565b6101f25780f35b5050fd5b60405162461bcd60e51b815260206004820152601c60248201527f436f6e747269627574696f6e207472616e73666572206661696c6564000000006044820152606490fd5b610b0f915060203d60201161033b5761032c8183611fd2565b38610a48565b60405162461bcd60e51b815260206004820152601960248201527f556e617574686f72697a656420636f6e747269627574696f6e000000000000006044820152606490fd5b506001600160a01b03610b6d828461215b565b51166001600160a01b038516146109e9565b505090916109fd565b610ba59193503d8086833e610b9d8183611fd2565b8101906121b9565b91386109be565b634e487b7160e01b84526011600452602484fd5b50346101f25760203660031901126101f2576001600160a01b03610be2611f6e565b1681526009602052604081208054610bf981612143565b90610c076040519283611fd2565b80825260208201809385526020852085915b838310610c9d57868587604051928392602084019060208552518091526040840192915b818110610c4b575050500390f35b91935091602060a0600192608087518580851b0381511683528580851b038582015116858401526040810151604084015260608101516060840152015115156080820152019401910191849392610c3d565b60056020600192604051610cb081611f84565b848060a01b038654168152848060a01b03858701541683820152600286015460408201526003860154606082015260ff60048701541615156080820152815201920192019190610c19565b50346101f25760203660031901126101f2576020610d1f610d1a611f6e565b6123d1565b604051908152f35b50346101f257806003193601126101f2576020600554604051908152f35b50346101f257806003193601126101f2576001546040516001600160a01b039091168152602090f35b50346101f257806003193601126101f257610db3337f00000000000000000000000000000000000000000000000000000000000000006001600160a01b031614612244565b60ff6004541660038110156104b857610dcc9015612089565b6005548015610ec8576002546040516318160ddd60e01b815290602090829060049082906001600160a01b03165afa908115610ebd578391610e8b575b5015610e465760407f29e98ba00d07f171959c4ddcd2f3020debc7c52cf537a034d7e664340d098c6c91836005558151908152426020820152a180f35b60405162461bcd60e51b815260206004820152601a60248201527f4e6f204c5020746f6b656e7320746f20646973747269627574650000000000006044820152606490fd5b90506020813d602011610eb5575b81610ea660209383611fd2565b81010312610377575138610e09565b3d9150610e99565b6040513d85823e3d90fd5b60405162461bcd60e51b815260206004820152601860248201527f4e6f207265776172647320746f206469737472696275746500000000000000006044820152606490fd5b50346101f257806003193601126101f2576002546040516001600160a01b039091168152602090f35b50346101f257806003193601126101f25760206040516107d08152f35b50346101f25760203660031901126101f2576020906040906001600160a01b03610f7b611f6e565b168152600883522054604051908152f35b50346101f25760203660031901126101f257610fa6611f6e565b6001600160a01b031680825260096020526040822080549192918290610fcb81612143565b92610fd96040519485611fd2565b81845284526020808520859185015b83831061107a5750505050825b825181101561103f57608061100a828561215b565b5101511561101b575b600101610ff5565b90611037600191604061102e858761215b565b5101519061216f565b919050611013565b6020848387808352600884528160016040852001541160001461107357604083600192610d1f955260088652200154612120565b5050610d1f565b6005602060019260405161108d81611f84565b848060a01b038654168152848060a01b03858701541683820152600286015460408201526003860154606082015260ff60048701541615156080820152815201920192019190610fe8565b50346101f257806003193601126101f2576040517f00000000000000000000000000000000000000000000000000000000000000006001600160a01b03168152602090f35b50346101f257806003193601126101f2576040517f00000000000000000000000000000000000000000000000000000000000000006001600160a01b03168152602090f35b50346101f25760203660031901126101f2576004356111ab337f00000000000000000000000000000000000000000000000000000000000000006001600160a01b031614612244565b61138881116111e6576020817febdc8ce7038cacbcc77a4f91f4844c9dda6c4319afb91ede186f5494420ec8b692600655604051908152a180f35b60405162461bcd60e51b815260206004820152600f60248201526e41505920657863656564732035302560881b6044820152606490fd5b50346101f25760203660031901126101f2576020906040906001600160a01b03611245611f6e565b168152600a83522054604051908152f35b50346101f25760403660031901126101f257611270611f6e565b6001600160a01b03168152600960205260408120805460243592908310156101f25760a061129e8484612057565b50600180831b0381541690600180841b0360018201541690600281015460ff60046003840154930154169260405194855260208501526040840152606083015215156080820152f35b50346101f257806003193601126101f2576020600754604051908152f35b50346101f2576113143661201d565b91905061132233151561217c565b61132d8215156120c7565b61133b82600354101561238c565b60405163673a2a1f60e01b81529183836004817f00000000000000000000000000000000000000000000000000000000000000006001600160a01b03165afa9283156103845784936114e7575b508392845b81518110156114de57336001600160a01b036113a9838561215b565b51161480156114b9575b6113bf5760010161138d565b505090915060015b1561147c5760015460405163a9059cbb60e01b81526001600160a01b038481166004830152602482018490529091602091839160449183918991165af190811561038457849161145d575b5015611426578291610a5c82600354612120565b60405162461bcd60e51b815260206004820152600f60248201526e151c985b9cd9995c8819985a5b1959608a1b6044820152606490fd5b611476915060203d60201161033b5761032c8183611fd2565b38611412565b60405162461bcd60e51b81526020600482015260156024820152742ab730baba3437b934bd32b2103a3930b739b332b960591b6044820152606490fd5b506001600160a01b036114cc828461215b565b51166001600160a01b038516146113b3565b505090916113c7565b6114fc9193503d8086833e610b9d8183611fd2565b9138611388565b50346101f25760203660031901126101f25760043560038110156106d657611555337f00000000000000000000000000000000000000000000000000000000000000006001600160a01b031614612244565b60ff8019600454169116176004557fe2331ea4aa77bd9050f22ec79661d3d41e161cd0fc67a06e3679fedf8a3a1cfa61049c60ff6004541660405191829182611ff4565b50346101f25760203660031901126101f25760043560ff6004541660038110156103cc576115c79015612089565b80156117de57338252600860205260408220906002820180546115ec83821015612284565b6127108302838104612710036117ca5781611606916122dc565b9084549061271061161784846122c9565b0495600181019061271061162d835496876122c9565b04908961163a8388612120565b604051630328c7b560e01b81523360048201529690602088602481305afa908115610ebd578b988d949261177f575b5092611689959492611684611689936116909c9610156122fc565b612120565b9055612120565b905561169e82600354612120565b6003556002546001600160a01b0316803b1561177b57604051632770a7eb60e21b8152336004820152602481018390529084908290604490829084905af1801561038457611767575b5060015460405163a9059cbb60e01b815233600482015260248101849052906020908290604490829088906001600160a01b03165af18015610384576117339185916107a25750612348565b60405191825260208201527f7fc4727e062e336010f2c282598ef5f14facb3de68cf8195c2f23e1454b2b74e60403392a280f35b8361177491949294611fd2565b91386116e7565b8380fd5b99935097505092918b8860203d6020116117c3575b6020926117a18284611fd2565b50810103126117bf57965190968996929390928b9290611689611669565b8b80fd5b503d611794565b634e487b7160e01b86526011600452602486fd5b60405162461bcd60e51b815260206004820152601b60248201527f4c5020746f6b656e20616d6f756e74206d757374206265203e203000000000006044820152606490fd5b50346101f25760203660031901126101f2577ff8fad42e780bfa5459be3fe691e8ba1aec70342250112139c5771c3fd155f312602060043561188f337f00000000000000000000000000000000000000000000000000000000000000006001600160a01b031614612244565b61189a8115156120c7565b6118a68160055461216f565b600555604051908152a180f35b50346101f25760203660031901126101f2576118d033151561217c565b60405163673a2a1f60e01b815281816004817f00000000000000000000000000000000000000000000000000000000000000006001600160a01b03165afa9081156103425782916119ad575b508190825b81518110156119a657336001600160a01b0361193d838561215b565b51161461194c57600101611921565b50505060015b1561196b5761196560043560035461216f565b60035580f35b60405162461bcd60e51b81526020600482015260136024820152722ab730baba3437b934bd32b21031b0b63632b960691b6044820152606490fd5b5050611952565b6119c191503d8084833e610b9d8183611fd2565b3861191c565b50346101f257806003193601126101f257604051818254908160011c91600181168015611af7575b602084108114611ae3578385528492918115611ac45750600114611a67575b611a1a92500382611fd2565b604051809260208252825192836020840152815b848110611a4f57505091604092838284010152601f80199101168101030190f35b60208282018101516040888401015286945001611a2e565b508380529083907f290decd9548b62a8d60345a988386fc84ba6bc95484008f6362f93160ef3e5635b818310611aa8575050906020611a1a92820101611a0e565b6020919350806001915483858801015201910190918392611a90565b60209250611a1a94915060ff191682840152151560051b820101611a0e565b634e487b7160e01b86526022600452602486fd5b92607f16926119ef565b50346101f257806003193601126101f2576002546040516318160ddd60e01b815290602090829060049082906001600160a01b03165afa908115610342578291611b51575b602082604051908152f35b90506020813d602011611b7f575b81611b6c60209383611fd2565b810103126106d657602091505138611b46565b3d9150611b5f565b50346101f25760203660031901126101f257611ba1611f6e565b6001600160a01b0316815260096020526040812080548290611bc281612143565b92611bd06040519485611fd2565b81845282526020808320839185015b838310611c3757505050505b8151811015611c2c576080611c00828461215b565b51015115611c11575b600101611beb565b91611c24600191604061102e868661215b565b929050611c09565b602083604051908152f35b60056020600192604051611c4a81611f84565b848060a01b038654168152848060a01b03858701541683820152600286015460408201526003860154606082015260ff60048701541615156080820152815201920192019190611bdf565b50346101f25760403660031901126101f2576004356024359060ff600454166003811015611f5a57611cc79015612089565b611cd28215156120c7565b33835260096020526040832054811015611f2057611cfb90338452600960205260408420612057565b50600481019060ff825416611ee55760020180548311611eaa576001546040516323b872dd60e01b815233600482015230602482015260448101859052906020908290606490829089906001600160a01b03165af1908115610783578591611e8b575b5015611e4657828154808214600014611e3457505050600160ff198254161790555b611d8c81600754612120565b600755604051630328c7b560e01b8152336004820152602081602481305afa908115610ebd578391611e02575b5015611def575b6040519081527fe8b606ac1e5df7657db58d297ca8f41c090fc94c5fd2d6958f043e41736e9fa660203392a280f35b338252600a602052816040812055611dc0565b90506020813d602011611e2c575b81611e1d60209383611fd2565b810103126106d2575138611db9565b3d9150611e10565b611e3f929350612120565b9055611d80565b60405162461bcd60e51b815260206004820152601960248201527f52657061796d656e74207472616e73666572206661696c6564000000000000006044820152606490fd5b611ea4915060203d60201161033b5761032c8183611fd2565b38611d5e565b60405162461bcd60e51b8152602060048201526013602482015272105b5bdd5b9d08195e18d959591cc81919589d606a1b6044820152606490fd5b60405162461bcd60e51b81526020600482015260136024820152721119589d08185b1c9958591e481c995c185a59606a1b6044820152606490fd5b60405162461bcd60e51b8152602060048201526012602482015271092dcecc2d8d2c840c8cac4e840d2dcc8caf60731b6044820152606490fd5b634e487b7160e01b84526021600452602484fd5b600435906001600160a01b038216820361037757565b60a0810190811067ffffffffffffffff821117611fa057604052565b634e487b7160e01b600052604160045260246000fd5b6080810190811067ffffffffffffffff821117611fa057604052565b90601f8019910116810190811067ffffffffffffffff821117611fa057604052565b9190602083019260038210156120075752565b634e487b7160e01b600052602160045260246000fd5b6060906003190112610377576004356001600160a01b038116810361037757906024356001600160a01b0381168103610377579060443590565b8054821015612073576000526005602060002091020190600090565b634e487b7160e01b600052603260045260246000fd5b1561209057565b60405162461bcd60e51b815260206004820152600f60248201526e506f6f6c206e6f742061637469766560881b6044820152606490fd5b156120ce57565b60405162461bcd60e51b81526020600482015260126024820152710416d6f756e74206d757374206265203e20360741b6044820152606490fd5b90816020910312610377575180151581036103775790565b9190820391821161212d57565b634e487b7160e01b600052601160045260246000fd5b67ffffffffffffffff8111611fa05760051b60200190565b80518210156120735760209160051b010190565b9190820180921161212d57565b1561218357565b60405162461bcd60e51b815260206004820152600e60248201526d24b73b30b634b21031b0b63632b960911b6044820152606490fd5b6020818303126103775780519067ffffffffffffffff821161037757019080601f83011215610377578151906121ee82612143565b926121fc6040519485611fd2565b82845260208085019360051b82010191821161037757602001915b8183106122245750505090565b82516001600160a01b038116810361037757815260209283019201612217565b1561224b57565b60405162461bcd60e51b81526020600482015260116024820152702737ba103330b1ba37b93c9037bbb732b960791b6044820152606490fd5b1561228b57565b60405162461bcd60e51b8152602060048201526016602482015275496e73756666696369656e74204c5020746f6b656e7360501b6044820152606490fd5b8181029291811591840414171561212d57565b81156122e6570490565b634e487b7160e01b600052601260045260246000fd5b1561230357565b60405162461bcd60e51b815260206004820152601760248201527f496e73756666696369656e7420636f6c6c61746572616c0000000000000000006044820152606490fd5b1561234f57565b60405162461bcd60e51b8152602060048201526015602482015274151bdad95b881d1c985b9cd9995c8819985a5b1959605a1b6044820152606490fd5b1561239357565b60405162461bcd60e51b8152602060048201526016602482015275496e73756666696369656e74206c697175696469747960501b6044820152606490fd5b60018060a01b03169081600052600860205260016040600020015460405163673a2a1f60e01b815260008160048160018060a01b037f0000000000000000000000000000000000000000000000000000000000000000165afa90811561254f57600091612534575b5060005b815181101561252d57306001600160a01b03612459838561215b565b51160361246b575b6001905b0161243d565b602460806001600160a01b03612481848661215b565b5116604051928380926303d3b32360e51b82528a60048301525afa600091816124cd575b506124b35750600190612465565b6001919360206124c59201519061216f565b929050612461565b90916080823d8211612525575b816124e760809383611fd2565b810103126101f257506060604051916124ff83611fb6565b8051835260208101516020840152604081015160408401520151606082015290386124a5565b3d91506124da565b5090925050565b61254991503d806000833e610b9d8183611fd2565b38612439565b6040513d6000823e3d90fd5b906125678115156120c7565b6001600160a01b03821615612b3f5761257f336123d1565b604051634a3a743f60e01b8152336004820152602081602481305afa90811561254f57600091612b0d575b50600354908381101580612b03575b612af757838192106128ac575b5080838110612633575b50826125dd91101561238c565b81116125ee576125ec91612b84565b565b60405162461bcd60e51b815260206004820152601860248201527f4578636565647320636f6c6c61746572616c206c696d697400000000000000006044820152606490fd5b949193929190506126448583612120565b60405163673a2a1f60e01b815290959390926000846004817f00000000000000000000000000000000000000000000000000000000000000006001600160a01b03165afa93841561254f5760009461288f575b5060005b845181101561287d578715612868576001600160a01b036126bc828761215b565b511630811461285f576040516326d352ab60e11b8152336004820152602081602481855afa6000918161282c575b506126fb5750506001905b0161269b565b6107d08102908082046107d0149015171561212d57612710900489811115612826575088905b604051630abb87c960e11b8152602081600481855afa600091816127f3575b50612750575050506001906126f5565b8280151591826127e8575b505061276c575b50506001906126f5565b803b1561037757604051633ce4a56360e11b815230600482015233602482015260448101839052906000908290606490829084905af190816127d7575b506127b757506001906126f5565b806127c96127cf926001949b9961216f565b97612120565b979038612762565b60006127e291611fd2565b386127a9565b10159050823861275b565b90916020823d821161281e575b8161280d60209383611fd2565b810103126101f25750519038612740565b3d9150612800565b90612721565b90916020823d8211612857575b8161284660209383611fd2565b810103126101f257505190386126ea565b3d9150612839565b506001906126f5565b50936125dd92965084919593505b91506125d0565b50936125dd9296508491959350612876565b6128a59194503d806000833e610b9d8183611fd2565b9238612697565b949193929190506128bd8583612120565b60405163673a2a1f60e01b815290959390926000846004817f00000000000000000000000000000000000000000000000000000000000000006001600160a01b03165afa93841561254f57600094612ada575b5060005b8451811015612acd578715612abe576001600160a01b03612935828761215b565b5116308114612ab557604051634a3a743f60e01b815233600482015290602082602481845afa60009281612a82575b506129755750506001905b01612914565b604051630abb87c960e11b815291602083600481855afa60009381612a4f575b506129a55750505060019061296f565b8a811115612a4857508980925b101580612a3f575b6129c9575b505060019061296f565b803b15610377576040516317efdd9d60e11b815230600482015233602482015260448101839052906000908290606490829084905af19081612a2e575b50612a14575060019061296f565b806127c9612a26926001949b9961216f565b9790386129bf565b6000612a3991611fd2565b38612a06565b508115156129ba565b80926129b2565b90936020823d8211612a7a575b81612a6960209383611fd2565b810103126101f25750519238612995565b3d9150612a5c565b90926020823d8211612aad575b81612a9c60209383611fd2565b810103126101f25750519138612964565b3d9150612a8f565b5060019061296f565b50939195509391505b386125c6565b5093919550939150612ac7565b612af09194503d806000833e610b9d8183611fd2565b9238612910565b5050506125ec91612b84565b50838210156125b9565b906020823d602011612b37575b81612b2760209383611fd2565b810103126101f2575051386125aa565b3d9150612b1a565b60405162461bcd60e51b815260206004820152601860248201527f496e76616c6964206d65726368616e74206164647265737300000000000000006044820152606490fd5b90600354600090828110613049576002546040516318160ddd60e01b81526001600160a01b039091169190602081600481865afa908115610384578491613017575b50612c075760405162461bcd60e51b81526020600482015260146024820152732737902628103a37b5b2b739903a3790313ab93760611b6044820152606490fd5b6040516318160ddd60e01b8152602081600481865afa908115610384578491612fe3575b50612c43602492612c3e602093886122c9565b6122dc565b92604051928380926370a0823160e01b82523360048301525afa8015610ebd5782908490612fad575b612c7892501015612284565b338252600860205260408220600281018054838110612f685783612c9b91612120565b9055612ca8848254612120565b8082556107d08102908082046107d01490151715610bac5761271060019104910155612cd683600354612120565b6003556002546001600160a01b031690813b156106d257604051632770a7eb60e21b815233600482015260248101919091529082908290604490829084905af18015610342578290612f58575b50503381526009602052604081209260405193612d3f85611f84565b338552602085019460018060a01b03831695868152604082018681526060830191428352608084019487865280549068010000000000000000821015612f445790612d8f91600182018155612057565b949094612f30575184546001600160a01b039182166001600160a01b0319918216178655915160018601805491909216921691909117905551600283015551600382015590516004909101805460ff191691151560ff16919091179055600754612dfa90849061216f565b60075562015180420180421161078e5783612e6392602092338652600a845260408620548111612f1e575b5060015460405163a9059cbb60e01b81526001600160a01b039283166004820152602481019390935291938492909116908290869082906044820190565b03925af1918215612f125791612ef3575b5015612eae576040519081523060208201527f02b13a848a4fdd9c53f7a9eeed12b50ee873fb61eccba06426e80ade0ff0b91860403392a3565b60405162461bcd60e51b815260206004820152601760248201527f5061796d656e74207472616e73666572206661696c65640000000000000000006044820152606490fd5b612f0c915060203d60201161033b5761032c8183611fd2565b38612e74565b604051903d90823e3d90fd5b338652600a8452604086205538612e25565b634e487b7160e01b88526004889052602488fd5b634e487b7160e01b89526041600452602489fd5b612f6191611fd2565b3881612d23565b60405162461bcd60e51b815260206004820152601d60248201527f496e73756666696369656e74206d696e746564204c5020746f6b656e730000006044820152606490fd5b50506020813d602011612fdb575b81612fc860209383611fd2565b810103126106d25781612c789151612c6c565b3d9150612fbb565b90506020813d60201161300f575b81612ffe60209383611fd2565b8101031261177b5751612c43612c2b565b3d9150612ff1565b90506020813d602011613041575b8161303260209383611fd2565b8101031261177b575138612bc6565b3d9150613025565b60405162461bcd60e51b815260206004820152601b60248201527f496e73756666696369656e7420706f6f6c206c697175696469747900000000006044820152606490fdfea2646970667358221220f10cecac897b348daa64826f46afac22b6ba632e597daddf39ec04be58ee99d064736f6c634300081c003360806040523461035f57610e828038038061001981610364565b92833981019060608183031261035f5780516001600160401b03811161035f5782610045918301610389565b60208201519092906001600160401b03811161035f57604091610069918401610389565b9101516001600160a01b0381169081900361035f576002805460ff1916601217905582516001600160401b03811161026a57600054600181811c91168015610355575b602082101461024a57601f81116102f1575b506020601f821160011461028b5781929394600092610280575b50508160011b916000199060031b1c1916176000555b81516001600160401b03811161026a57600154600181811c91168015610260575b602082101461024a57601f81116101e5575b50602092601f82116001146101805792819293600092610175575b50508160011b916000199060031b1c1916176001555b600680546001600160a01b031916919091179055604051610a8d90816103f58239f35b01519050388061013c565b601f198216936001600052806000209160005b8681106101cd57508360019596106101b4575b505050811b01600155610152565b015160001960f88460031b161c191690553880806101a6565b91926020600181928685015181550194019201610193565b60016000527fb10e2d527612073b26eecdfd717e6a320cf44b4afac2b0732d9fcbe2b7fa0cf6601f830160051c81019160208410610240575b601f0160051c01905b8181106102345750610121565b60008155600101610227565b909150819061021e565b634e487b7160e01b600052602260045260246000fd5b90607f169061010f565b634e487b7160e01b600052604160045260246000fd5b0151905038806100d8565b601f1982169060008052806000209160005b8181106102d9575095836001959697106102c0575b505050811b016000556100ee565b015160001960f88460031b161c191690553880806102b2565b9192602060018192868b01518155019401920161029d565b600080527f290decd9548b62a8d60345a988386fc84ba6bc95484008f6362f93160ef3e563601f830160051c8101916020841061034b575b601f0160051c01905b81811061033f57506100be565b60008155600101610332565b9091508190610329565b90607f16906100ac565b600080fd5b6040519190601f01601f191682016001600160401b0381118382101761026a57604052565b81601f8201121561035f578051906001600160401b03821161026a576103b8601f8301601f1916602001610364565b928284526020838301011161035f5760005b8281106103df57505060206000918301015290565b806020809284010151828287010152016103ca56fe6080604052600436101561001257600080fd5b60003560e01c806306fdde031461060d578063095ea7b3146105e757806318160ddd146105c957806323b872dd14610501578063313ce567146104e057806340c10f19146103f957806370a08231146103bf5780638da5cb5b1461039657806395d89b41146102755780639dc29fac14610127578063a9059cbb146100f65763dd62ed3e146100a057600080fd5b346100f15760403660031901126100f1576100b9610710565b6100c1610726565b6001600160a01b039182166000908152600560209081526040808320949093168252928352819020549051908152f35b600080fd5b346100f15760403660031901126100f15761011c610112610710565b60243590336108c3565b602060405160018152f35b346100f15760403660031901126100f157610140610710565b6024359061015960018060a01b0360065416331461075f565b6001600160a01b031680156102245780600052600460205281604060002054106101d3577fddf252ad1be2c89b69c2b068fc378daa952ba7f163c4a11628f55a4df523b3ef602060009383855260048252604085206101b982825461073c565b90556101c78160035461073c565b600355604051908152a3005b60405162461bcd60e51b8152602060048201526024808201527f4c5045524332303a206275726e20616d6f756e7420657863656564732062616c604482015263616e636560e01b6064820152608490fd5b60405162461bcd60e51b815260206004820152602360248201527f4c5045524332303a206275726e2066726f6d20746865207a65726f206164647260448201526265737360e81b6064820152608490fd5b346100f15760003660031901126100f1576000604051816001548060011c9060018116801561038c575b6020831081146103785782855290811561035c5750600114610308575b50819003601f01601f1916810167ffffffffffffffff8111828210176102f4576102f09250604052604051918291826106c7565b0390f35b634e487b7160e01b83526041600452602483fd5b600184529050827fb10e2d527612073b26eecdfd717e6a320cf44b4afac2b0732d9fcbe2b7fa0cf65b828210610346575060209150820101836102bc565b6001816020925483858801015201910190610331565b90506020925060ff191682840152151560051b820101836102bc565b634e487b7160e01b86526022600452602486fd5b91607f169161029f565b346100f15760003660031901126100f1576006546040516001600160a01b039091168152602090f35b346100f15760203660031901126100f1576001600160a01b036103e0610710565b1660005260046020526020604060002054604051908152f35b346100f15760403660031901126100f157610412610710565b6024359061042b60018060a01b0360065416331461075f565b6001600160a01b0316908115610491577fddf252ad1be2c89b69c2b068fc378daa952ba7f163c4a11628f55a4df523b3ef60208261046d6000946003546107aa565b60035584845260048252604084206104868282546107aa565b9055604051908152a3005b60405162461bcd60e51b815260206004820152602160248201527f4c5045524332303a206d696e7420746f20746865207a65726f206164647265736044820152607360f81b6064820152608490fd5b346100f15760003660031901126100f157602060ff60025416604051908152f35b346100f15760603660031901126100f15761051a610710565b610522610726565b6001600160a01b038216600090815260056020908152604080832033845290915290205491906044358084106105715761011c936105648261056994866108c3565b61073c565b9033906107b7565b60405162461bcd60e51b815260206004820152602a60248201527f4c5045524332303a207472616e7366657220616d6f756e74206578636565647360448201526920616c6c6f77616e636560b01b6064820152608490fd5b346100f15760003660031901126100f1576020600354604051908152f35b346100f15760403660031901126100f15761011c610603610710565b60243590336107b7565b346100f15760003660031901126100f15760006040518182548060011c906001811680156106bd575b6020831081146103785782855290811561035c57506001146106865750819003601f01601f1916810167ffffffffffffffff8111828210176102f4576102f09250604052604051918291826106c7565b90508280526020832083905b8282106106a7575060209150820101836102bc565b6001816020925483858801015201910190610692565b91607f1691610636565b91909160208152825180602083015260005b8181106106fa575060409293506000838284010152601f8019910116010190565b80602080928701015160408286010152016106d9565b600435906001600160a01b03821682036100f157565b602435906001600160a01b03821682036100f157565b9190820391821161074957565b634e487b7160e01b600052601160045260246000fd5b1561076657565b606460405162461bcd60e51b815260206004820152602060248201527f4c5045524332303a2063616c6c6572206973206e6f7420746865206f776e65726044820152fd5b9190820180921161074957565b6001600160a01b031690811561086f576001600160a01b031691821561081e5760207f8c5be1e5ebec7d5bd14f71427d1e84f3dd0314c0f7b2291e5b200ac8c7c3b925918360005260058252604060002085600052825280604060002055604051908152a3565b60405162461bcd60e51b8152602060048201526024808201527f4c5045524332303a20617070726f766520746f20746865207a65726f206164646044820152637265737360e01b6064820152608490fd5b60405162461bcd60e51b815260206004820152602660248201527f4c5045524332303a20617070726f76652066726f6d20746865207a65726f206160448201526564647265737360d01b6064820152608490fd5b6001600160a01b0316908115610a02576001600160a01b03169182156109af5781600052600460205280604060002054106109595760207fddf252ad1be2c89b69c2b068fc378daa952ba7f163c4a11628f55a4df523b3ef918360005260048252604060002061093482825461073c565b90558460005260048252604060002061094e8282546107aa565b9055604051908152a3565b60405162461bcd60e51b815260206004820152602860248201527f4c5045524332303a207472616e7366657220616d6f756e7420657863656564736044820152672062616c616e636560c01b6064820152608490fd5b60405162461bcd60e51b815260206004820152602560248201527f4c5045524332303a207472616e7366657220746f20746865207a65726f206164604482015264647265737360d81b6064820152608490fd5b60405162461bcd60e51b815260206004820152602760248201527f4c5045524332303a207472616e736665722066726f6d20746865207a65726f206044820152666164647265737360c81b6064820152608490fdfea26469706673582212201bbefa2c147203deadc328cb59c54baa3d4b57162c5d5825c3907827fbef665d64736f6c634300081c0033",
  "immutableReferences": {
    "1461": [
      {
        "length": 32,
        "start": 579
      },
      {
        "length": 32,
        "start": 1045
      },
      {
        "length": 32,
        "start": 3461
      },
      {
        "length": 32,
        "start": 4334
      },
      {
        "length": 32,
        "start": 4477
      },
      {
        "length": 32,
        "start": 5415
      },
      {
        "length": 32,
        "start": 6241
      }
    ],
    "1463": [
      {
        "length": 32,
        "start": 2438
      },
      {
        "length": 32,
        "start": 4403
      },
      {
        "length": 32,
        "start": 4944
      },
      {
        "length": 32,
        "start": 6372
      },
      {
        "length": 32,
        "start": 9224
      },
      {
        "length": 32,
        "start": 9822
      },
      {
        "length": 32,
        "start": 10455
      }
    ]
  },
  "source": "// SPDX-License-Identifier: MIT\r\npragma solidity ^0.8.19;\r\n\r\nimport \"./IERC20.sol\";\r\nimport \"./LPERC20.sol\";\r\n\r\ninterface IPoolFactory {\r\n    function getPools() external view returns (address[] memory);\r\n}\r\n\r\n// Define Stake struct outside the contract to make it accessible to the interface\r\nstruct Stake {\r\n    uint256 stakedAmount;\r\n    uint256 collateralAmount;\r\n    uint256 lpTokensMinted;\r\n    uint256 stakeTimestamp;\r\n}\r\n\r\ninterface ILiquidityPool {\r\n    function getStake(address user) external view returns (Stake memory);\r\n    function getCollateralAvailable(address user) external view returns (uint256);\r\n    function totalLiquidity() external view returns (uint256);\r\n    function getStakedAmount(address user) external view returns (uint256);\r\n    function transferLiquidityToPool(address targetPool, address user, uint256 amount) external;\r\n    function contributeLiquidityForPayment(address targetPool, address user, uint256 amount) external;\r\n    function receiveLiquidity(uint256 amount) external; // New function\r\n}\r\n\r\ncontract LiquidityPool {\r\n    address public immutable factoryOwner;\r\n    address public immutable poolFactory;\r\n    string public regionName;\r\n    IERC20 public stakingToken;\r\n    LPERC20 public lpToken;\r\n    uint256 public totalLiquidityStaked;\r\n    PoolStatusContract public status;\r\n    uint256 public rewardsPot;\r\n    uint256 public apyBasisPoints = 500;\r\n    uint256 public totalDebt;\r\n    uint256 public constant COLLATERAL_PERCENTAGE_BP = 2000;\r\n    uint256 public constant UNSTAKE_TIME_LOCK_DURATION = 24 hours;\r\n    uint256 public constant BASIS_POINTS = 10000;\r\n    mapping(address => Stake) public stakers;\r\n    mapping(address => Debt[]) public userDebts;\r\n    mapping(address => uint256) public debtRelatedUnstakeTimelock;\r\n\r\n    struct Debt {\r\n        address user;\r\n        address merchantAddress;\r\n        uint256 amount;\r\n        uint256 timestamp;\r\n        bool isRepaid;\r\n    }\r\n\r\n    enum PoolStatusContract { ACTIVE, PAUSED, INACTIVE }\r\n\r\n    event Staked(address indexed user, uint256 amountStaked, uint256 lpTokensReceived);\r\n    event Unstaked(address indexed user, uint256 amountUnstaked, uint256 lpTokensBurned);\r\n    event FallbackPaymentMade(address indexed user, address indexed merchant, uint256 amount, address poolUsed);\r\n    event DebtRepaid(address indexed user, uint256 amountRepaid);\r\n    event RewardsDistributed(uint256 totalRewardsDistributed, uint256 timestamp);\r\n    event PoolStatusChanged(PoolStatusContract newStatus);\r\n    event ApyUpdated(uint256 newApyBasisPoints);\r\n    event RewardsAdded(uint256 amount);\r\n\r\n    modifier onlyFactoryOwner() {\r\n        require(msg.sender == factoryOwner, \"Not factory owner\");\r\n        _;\r\n    }\r\n\r\n    modifier whenActive() {\r\n        require(status == PoolStatusContract.ACTIVE, \"Pool not active\");\r\n        _;\r\n    }\r\n\r\n    constructor(string memory _regionName, address _factoryOwner, address _stakingTokenAddress, address _poolFactory) {\r\n        regionName = _regionName;\r\n        factoryOwner = _factoryOwner;\r\n        poolFactory = _poolFactory;\r\n        stakingToken = IERC20(_stakingTokenAddress);\r\n        status = PoolStatusContract.ACTIVE;\r\n        lpToken = new LPERC20(\r\n            string(abi.encodePacked(\"AegisLP-\", _regionName)),\r\n            string(abi.encodePacked(\"ALP-\", _regionName)),\r\n            address(this)\r\n        );\r\n    }\r\n\r\n    function getPoolStatus() external view returns (PoolStatusContract) {\r\n        return status;\r\n    }\r\n\r\n    function totalLiquidity() external view returns (uint256) {\r\n        return totalLiquidityStaked;\r\n    }\r\n\r\n    function apy() external view returns (uint256) {\r\n        return apyBasisPoints;\r\n    }\r\n\r\n    function lpTokenSupply() external view returns (uint256) {\r\n        return lpToken.totalSupply();\r\n    }\r\n\r\n    function getStake(address _user) external view returns (Stake memory) {\r\n        return stakers[_user];\r\n    }\r\n\r\n    function getUserDebts(address _user) external view returns (Debt[] memory) {\r\n        return userDebts[_user];\r\n    }\r\n\r\n    function getCollateralAvailable(address _user) external view returns (uint256) {\r\n        uint256 totalDebt = 0;\r\n        Debt[] memory debts = userDebts[_user];\r\n        for (uint256 i = 0; i < debts.length; i++) {\r\n            if (!debts[i].isRepaid) {\r\n                totalDebt += debts[i].amount;\r\n            }\r\n        }\r\n        return stakers[_user].collateralAmount > totalDebt ? stakers[_user].collateralAmount - totalDebt : 0;\r\n    }\r\n\r\n    function getActiveDebtAmount(address _user) external view returns (uint256) {\r\n        uint256 tb = 0;\r\n        Debt[] memory debts = userDebts[_user];\r\n        for (uint256 i = 0; i < debts.length; i++) {\r\n            if (!debts[i].isRepaid) {\r\n                tb += debts[i].amount;\r\n            }\r\n        }\r\n        return tb;\r\n    }\r\n\r\n    function getTotalDebt() external view returns (uint256) {\r\n        return totalDebt;\r\n    }\r\n\r\n    function toggleStatus() external onlyFactoryOwner {\r\n        if (status == PoolStatusContract.ACTIVE) {\r\n            status = PoolStatusContract.PAUSED;\r\n        } else if (status == PoolStatusContract.PAUSED) {\r\n            status = PoolStatusContract.ACTIVE;\r\n        }\r\n        emit PoolStatusChanged(status);\r\n    }\r\n\r\n    function setStatus(PoolStatusContract _newStatus) external onlyFactoryOwner {\r\n        status = _newStatus;\r\n        emit PoolStatusChanged(status);\r\n    }\r\n\r\n    function setApy(uint256 _newApyBasisPoints) external onlyFactoryOwner {\r\n        require(_newApyBasisPoints <= 5000, \"APY exceeds 50%\");\r\n        apyBasisPoints = _newApyBasisPoints;\r\n        emit ApyUpdated(_newApyBasisPoints);\r\n    }\r\n\r\n    function addRewardsToPot(uint256 amount) external onlyFactoryOwner {\r\n        require(amount > 0, \"Amount must be > 0\");\r\n        rewardsPot += amount;\r\n        emit RewardsAdded(amount);\r\n    }\r\n\r\n    function stake(uint256 _amount) external whenActive {\r\n        require(_amount > 0, \"Amount must be > 0\");\r\n        require(stakingToken.transferFrom(msg.sender, address(this), _amount), \"Token transfer failed\");\r\n        uint256 collateralAmount = (_amount * COLLATERAL_PERCENTAGE_BP) / BASIS_POINTS;\r\n        uint256 lpTokensToMint;\r\n        if (lpToken.totalSupply() == 0) {\r\n            lpTokensToMint = _amount;\r\n        } else {\r\n            lpTokensToMint = (_amount * lpToken.totalSupply()) / totalLiquidityStaked;\r\n        }\r\n        Stake storage userStake = stakers[msg.sender];\r\n        userStake.stakedAmount += _amount;\r\n        userStake.collateralAmount += collateralAmount;\r\n        userStake.lpTokensMinted += lpTokensToMint;\r\n        userStake.stakeTimestamp = block.timestamp;\r\n        totalLiquidityStaked += _amount;\r\n        lpToken.mint(msg.sender, lpTokensToMint);\r\n        emit Staked(msg.sender, _amount, lpTokensToMint);\r\n    }\r\n\r\n    function unstake(uint256 _lpTokenAmount) external whenActive {\r\n        require(_lpTokenAmount > 0, \"LP token amount must be > 0\");\r\n        Stake storage userStake = stakers[msg.sender];\r\n        require(userStake.lpTokensMinted >= _lpTokenAmount, \"Insufficient LP tokens\");\r\n        uint256 proportionBasisPoints = (_lpTokenAmount * BASIS_POINTS) / userStake.lpTokensMinted;\r\n        uint256 stakedAmountToReturn = (userStake.stakedAmount * proportionBasisPoints) / BASIS_POINTS;\r\n        uint256 collateralToReduce = (userStake.collateralAmount * proportionBasisPoints) / BASIS_POINTS;\r\n        uint256 remainingCollateral = userStake.collateralAmount - collateralToReduce;\r\n        uint256 activeDebt = this.getActiveDebtAmount(msg.sender);\r\n        require(remainingCollateral >= activeDebt, \"Insufficient collateral\");\r\n        userStake.stakedAmount -= stakedAmountToReturn;\r\n        userStake.collateralAmount -= collateralToReduce;\r\n        userStake.lpTokensMinted -= _lpTokenAmount;\r\n        totalLiquidityStaked -= stakedAmountToReturn;\r\n        lpToken.burn(msg.sender, _lpTokenAmount);\r\n        require(stakingToken.transfer(msg.sender, stakedAmountToReturn), \"Token transfer failed\");\r\n        emit Unstaked(msg.sender, stakedAmountToReturn, _lpTokenAmount);\r\n    }\r\n\r\n    function getTotalCollateralAcrossPools(address user) public view returns (uint256) {\r\n        uint256 totalCollateral = stakers[user].collateralAmount;\r\n        address[] memory allPools = IPoolFactory(poolFactory).getPools();\r\n        for (uint256 i = 0; i < allPools.length; i++) {\r\n            if (allPools[i] != address(this)) {\r\n                try ILiquidityPool(allPools[i]).getStake(user) returns (Stake memory userStakeInPool) {\r\n                    totalCollateral += userStakeInPool.collateralAmount;\r\n                } catch {\r\n                    continue;\r\n                }\r\n            }\r\n        }\r\n        return totalCollateral;\r\n    }\r\n\r\n    function redistributeFundsFromPools(address user, uint256 requiredAmount, uint256 currentPoolAvailable) internal returns (uint256 redistributedAmount) {\r\n        uint256 stillNeeded = requiredAmount - currentPoolAvailable;\r\n        redistributedAmount = currentPoolAvailable;\r\n        address[] memory allPools = IPoolFactory(poolFactory).getPools();\r\n        for (uint256 i = 0; i < allPools.length; i++) {\r\n            if (stillNeeded == 0) break;\r\n            address poolAddress = allPools[i];\r\n            if (poolAddress == address(this)) continue;\r\n            try ILiquidityPool(poolAddress).getCollateralAvailable(user) returns (uint256 poolCollateral) {\r\n                try ILiquidityPool(poolAddress).totalLiquidity() returns (uint256 poolLiquidity) {\r\n                    uint256 canTakeFromPool = poolCollateral > stillNeeded ? stillNeeded : poolCollateral;\r\n                    if (poolLiquidity >= canTakeFromPool && canTakeFromPool > 0) {\r\n                        try ILiquidityPool(poolAddress).transferLiquidityToPool(address(this), user, canTakeFromPool) {\r\n                            redistributedAmount += canTakeFromPool;\r\n                            stillNeeded -= canTakeFromPool;\r\n                        } catch {\r\n                            continue;\r\n                        }\r\n                    }\r\n                } catch {\r\n                    continue;\r\n                }\r\n            } catch {\r\n                continue;\r\n            }\r\n        }\r\n        return redistributedAmount;\r\n    }\r\n\r\n    function addLiquidityFromNewPools(address user, uint256 requiredAmount, uint256 currentAvailable) internal returns (uint256 totalAvailable) {\r\n        uint256 stillNeeded = requiredAmount - currentAvailable;\r\n        totalAvailable = currentAvailable;\r\n        address[] memory allPools = IPoolFactory(poolFactory).getPools();\r\n        for (uint256 i = 0; i < allPools.length; i++) {\r\n            if (stillNeeded == 0) break;\r\n            address poolAddress = allPools[i];\r\n            if (poolAddress == address(this)) continue;\r\n            try ILiquidityPool(poolAddress).getStakedAmount(user) returns (uint256 userStakeInPool) {\r\n                uint256 userCollateralInPool = (userStakeInPool * COLLATERAL_PERCENTAGE_BP) / BASIS_POINTS;\r\n                uint256 availableFromPool = userCollateralInPool > stillNeeded ? stillNeeded : userCollateralInPool;\r\n                try ILiquidityPool(poolAddress).totalLiquidity() returns (uint256 poolLiquidity) {\r\n                    if (availableFromPool > 0 && poolLiquidity >= availableFromPool) {\r\n                        try ILiquidityPool(poolAddress).contributeLiquidityForPayment(address(this), user, availableFromPool) {\r\n                            totalAvailable += availableFromPool;\r\n                            stillNeeded -= availableFromPool;\r\n                        } catch {\r\n                            continue;\r\n                        }\r\n                    }\r\n                } catch {\r\n                    continue;\r\n                }\r\n            } catch {\r\n                continue;\r\n            }\r\n        }\r\n        return totalAvailable;\r\n    }\r\n\r\n    function fallbackPay(address _merchantAddress, uint256 _amount) external whenActive {\r\n        require(_amount > 0, \"Amount must be > 0\");\r\n        require(_merchantAddress != address(0), \"Invalid merchant address\");\r\n        uint256 totalCollateralAcrossPools = getTotalCollateralAcrossPools(msg.sender);\r\n        uint256 currentPoolCollateral = this.getCollateralAvailable(msg.sender);\r\n        uint256 currentPoolLiquidity = totalLiquidityStaked;\r\n        if (currentPoolCollateral >= _amount && currentPoolLiquidity >= _amount) {\r\n            executeOriginalFallbackPay(_merchantAddress, _amount);\r\n            return;\r\n        }\r\n        uint256 availableAfterRedistribution = currentPoolCollateral;\r\n        if (currentPoolLiquidity < _amount) {\r\n            availableAfterRedistribution = redistributeFundsFromPools(msg.sender, _amount, currentPoolCollateral);\r\n        }\r\n        uint256 finalAvailableAmount = availableAfterRedistribution;\r\n        if (finalAvailableAmount < _amount) {\r\n            finalAvailableAmount = addLiquidityFromNewPools(msg.sender, _amount, availableAfterRedistribution);\r\n        }\r\n        require(finalAvailableAmount >= _amount, \"Insufficient liquidity\");\r\n        require(_amount <= totalCollateralAcrossPools, \"Exceeds collateral limit\");\r\n        executeOriginalFallbackPay(_merchantAddress, _amount);\r\n    }\r\n\r\n    function executeOriginalFallbackPay(address _merchantAddress, uint256 _amount) internal {\r\n        require(totalLiquidityStaked >= _amount, \"Insufficient pool liquidity\");\r\n        uint256 lpTokensToBurn;\r\n        if (lpToken.totalSupply() == 0) {\r\n            revert(\"No LP tokens to burn\");\r\n        } else {\r\n            lpTokensToBurn = (_amount * lpToken.totalSupply()) / totalLiquidityStaked;\r\n        }\r\n        require(lpToken.balanceOf(msg.sender) >= lpTokensToBurn, \"Insufficient LP tokens\");\r\n        Stake storage userStake = stakers[msg.sender];\r\n        require(userStake.lpTokensMinted >= lpTokensToBurn, \"Insufficient minted LP tokens\");\r\n        userStake.lpTokensMinted -= lpTokensToBurn;\r\n        userStake.stakedAmount -= _amount;\r\n        userStake.collateralAmount = (userStake.stakedAmount * COLLATERAL_PERCENTAGE_BP) / BASIS_POINTS;\r\n        totalLiquidityStaked -= _amount;\r\n        lpToken.burn(msg.sender, lpTokensToBurn);\r\n        userDebts[msg.sender].push(Debt({\r\n            user: msg.sender,\r\n            merchantAddress: _merchantAddress,\r\n            amount: _amount,\r\n            timestamp: block.timestamp,\r\n            isRepaid: false\r\n        }));\r\n        totalDebt += _amount;\r\n        uint256 newTimelock = block.timestamp + UNSTAKE_TIME_LOCK_DURATION;\r\n        if (newTimelock > debtRelatedUnstakeTimelock[msg.sender]) {\r\n            debtRelatedUnstakeTimelock[msg.sender] = newTimelock;\r\n        }\r\n        require(stakingToken.transfer(_merchantAddress, _amount), \"Payment transfer failed\");\r\n        emit FallbackPaymentMade(msg.sender, _merchantAddress, _amount, address(this));\r\n    }\r\n\r\n    function repayDebt(uint256 _debtIndex, uint256 _amount) external whenActive {\r\n        require(_amount > 0, \"Amount must be > 0\");\r\n        require(_debtIndex < userDebts[msg.sender].length, \"Invalid debt index\");\r\n        Debt storage debt = userDebts[msg.sender][_debtIndex];\r\n        require(!debt.isRepaid, \"Debt already repaid\");\r\n        require(_amount <= debt.amount, \"Amount exceeds debt\");\r\n        require(stakingToken.transferFrom(msg.sender, address(this), _amount), \"Repayment transfer failed\");\r\n        if (_amount == debt.amount) {\r\n            debt.isRepaid = true;\r\n        } else {\r\n            debt.amount -= _amount;\r\n        }\r\n        totalDebt -= _amount;\r\n        if (this.getActiveDebtAmount(msg.sender) == 0) {\r\n            debtRelatedUnstakeTimelock[msg.sender] = 0;\r\n        }\r\n        emit DebtRepaid(msg.sender, _amount);\r\n    }\r\n\r\n    function distributeRewards() external onlyFactoryOwner whenActive {\r\n        require(rewardsPot > 0, \"No rewards to distribute\");\r\n        require(lpToken.totalSupply() > 0, \"No LP tokens to distribute\");\r\n        uint256 rewardsToDistribute = rewardsPot;\r\n        rewardsPot = 0;\r\n        emit RewardsDistributed(rewardsToDistribute, block.timestamp);\r\n    }\r\n\r\n    function emergencyWithdraw() external onlyFactoryOwner {\r\n        require(status == PoolStatusContract.INACTIVE, \"Pool must be inactive\");\r\n        uint256 balance = stakingToken.balanceOf(address(this));\r\n        if (balance > 0) {\r\n            stakingToken.transfer(factoryOwner, balance);\r\n        }\r\n    }\r\n\r\n   function transferLiquidityToPool(address targetPool, address user, uint256 amount) external {\r\n    require(msg.sender != address(0), \"Invalid caller\");\r\n    require(amount > 0, \"Amount must be > 0\");\r\n    require(totalLiquidityStaked >= amount, \"Insufficient liquidity\");\r\n    address[] memory allPools = IPoolFactory(poolFactory).getPools();\r\n    bool isValidPool = false;\r\n    for (uint256 i = 0; i < allPools.length; i++) {\r\n        if (allPools[i] == msg.sender || allPools[i] == targetPool) {\r\n            isValidPool = true;\r\n            break;\r\n        }\r\n    }\r\n    require(isValidPool, \"Unauthorized transfer\");\r\n    require(stakingToken.transfer(targetPool, amount), \"Transfer failed\");\r\n    totalLiquidityStaked -= amount;\r\n    // Notify target pool to increase its liquidity\r\n    ILiquidityPool(targetPool).receiveLiquidity(amount);\r\n}\r\n\r\n   function contributeLiquidityForPayment(address targetPool, address user, uint256 amount) external {\r\n    require(msg.sender != address(0), \"Invalid caller\");\r\n    require(amount > 0, \"Amount must be > 0\");\r\n    require(totalLiquidityStaked >= amount, \"Insufficient liquidity\");\r\n    Stake storage userStake = stakers[user];\r\n    uint256 userCollateral = (userStake.stakedAmount * COLLATERAL_PERCENTAGE_BP) / BASIS_POINTS;\r\n    require(userCollateral >= amount, \"Insufficient collateral\");\r\n    address[] memory allPools = IPoolFactory(poolFactory).getPools();\r\n    bool isValidPool = false;\r\n    for (uint256 i = 0; i < allPools.length; i++) {\r\n        if (allPools[i] == msg.sender || allPools[i] == targetPool) {\r\n            isValidPool = true;\r\n            break;\r\n        }\r\n    }\r\n    require(isValidPool, \"Unauthorized contribution\");\r\n    require(stakingToken.transfer(targetPool, amount), \"Contribution transfer failed\");\r\n    totalLiquidityStaked -= amount;\r\n    // Notify target pool to increase its liquidity\r\n    ILiquidityPool(targetPool).receiveLiquidity(amount);\r\n}\r\n\r\nfunction receiveLiquidity(uint256 amount) external {\r\n    require(msg.sender != address(0), \"Invalid caller\");\r\n    address[] memory allPools = IPoolFactory(poolFactory).getPools();\r\n    bool isValidPool = false;\r\n    for (uint256 i = 0; i < allPools.length; i++) {\r\n        if (allPools[i] == msg.sender) {\r\n            isValidPool = true;\r\n            break;\r\n        }\r\n    }\r\n    require(isValidPool, \"Unauthorized caller\");\r\n    totalLiquidityStaked += amount;\r\n}\r\n    function getStakedAmount(address user) external view returns (uint256) {\r\n        return stakers[user].stakedAmount;\r\n    }\r\n}",
  "sourcePath": "C:\\Users\\ANMOL\\OneDrive\\Desktop\\AMAZON HACKON\\Ageis-Blockchain\\truffle-project\\contracts\\LiquidityPool.sol",
  "compiler": {
    "name": "solc",
    "version": "0.8.28+commit.7893614a.Emscripten.clang"
  },
  "schemaVersion": "3.4.16",
  "updatedAt": "2025-06-22T12:49:42.570Z",
  "devdoc": {
    "kind": "dev",
    "methods": {},
    "version": 1
  },
  "userdoc": {
    "kind": "user",
    "methods": {},
    "version": 1
  }
}