{
  "contractName": "LPERC20",
  "abi": [
    {
      "inputs": [
        {
          "internalType": "string",
          "name": "_name",
          "type": "string"
        },
        {
          "internalType": "string",
          "name": "_symbol",
          "type": "string"
        },
        {
          "internalType": "address",
          "name": "_owner",
          "type": "address"
        }
      ],
      "stateMutability": "nonpayable",
      "type": "constructor"
    },
    {
      "anonymous": false,
      "inputs": [
        {
          "indexed": true,
          "internalType": "address",
          "name": "owner",
          "type": "address"
        },
        {
          "indexed": true,
          "internalType": "address",
          "name": "spender",
          "type": "address"
        },
        {
          "indexed": false,
          "internalType": "uint256",
          "name": "value",
          "type": "uint256"
        }
      ],
      "name": "Approval",
      "type": "event"
    },
    {
      "anonymous": false,
      "inputs": [
        {
          "indexed": true,
          "internalType": "address",
          "name": "from",
          "type": "address"
        },
        {
          "indexed": true,
          "internalType": "address",
          "name": "to",
          "type": "address"
        },
        {
          "indexed": false,
          "internalType": "uint256",
          "name": "value",
          "type": "uint256"
        }
      ],
      "name": "Transfer",
      "type": "event"
    },
    {
      "inputs": [],
      "name": "decimals",
      "outputs": [
        {
          "internalType": "uint8",
          "name": "",
          "type": "uint8"
        }
      ],
      "stateMutability": "view",
      "type": "function"
    },
    {
      "inputs": [],
      "name": "name",
      "outputs": [
        {
          "internalType": "string",
          "name": "",
          "type": "string"
        }
      ],
      "stateMutability": "view",
      "type": "function"
    },
    {
      "inputs": [],
      "name": "owner",
      "outputs": [
        {
          "internalType": "address",
          "name": "",
          "type": "address"
        }
      ],
      "stateMutability": "view",
      "type": "function"
    },
    {
      "inputs": [],
      "name": "symbol",
      "outputs": [
        {
          "internalType": "string",
          "name": "",
          "type": "string"
        }
      ],
      "stateMutability": "view",
      "type": "function"
    },
    {
      "inputs": [],
      "name": "totalSupply",
      "outputs": [
        {
          "internalType": "uint256",
          "name": "",
          "type": "uint256"
        }
      ],
      "stateMutability": "view",
      "type": "function"
    },
    {
      "inputs": [
        {
          "internalType": "address",
          "name": "account",
          "type": "address"
        }
      ],
      "name": "balanceOf",
      "outputs": [
        {
          "internalType": "uint256",
          "name": "",
          "type": "uint256"
        }
      ],
      "stateMutability": "view",
      "type": "function"
    },
    {
      "inputs": [
        {
          "internalType": "address",
          "name": "to",
          "type": "address"
        },
        {
          "internalType": "uint256",
          "name": "amount",
          "type": "uint256"
        }
      ],
      "name": "transfer",
      "outputs": [
        {
          "internalType": "bool",
          "name": "",
          "type": "bool"
        }
      ],
      "stateMutability": "nonpayable",
      "type": "function"
    },
    {
      "inputs": [
        {
          "internalType": "address",
          "name": "ownerAddr",
          "type": "address"
        },
        {
          "internalType": "address",
          "name": "spender",
          "type": "address"
        }
      ],
      "name": "allowance",
      "outputs": [
        {
          "internalType": "uint256",
          "name": "",
          "type": "uint256"
        }
      ],
      "stateMutability": "view",
      "type": "function"
    },
    {
      "inputs": [
        {
          "internalType": "address",
          "name": "spender",
          "type": "address"
        },
        {
          "internalType": "uint256",
          "name": "amount",
          "type": "uint256"
        }
      ],
      "name": "approve",
      "outputs": [
        {
          "internalType": "bool",
          "name": "",
          "type": "bool"
        }
      ],
      "stateMutability": "nonpayable",
      "type": "function"
    },
    {
      "inputs": [
        {
          "internalType": "address",
          "name": "from",
          "type": "address"
        },
        {
          "internalType": "address",
          "name": "to",
          "type": "address"
        },
        {
          "internalType": "uint256",
          "name": "amount",
          "type": "uint256"
        }
      ],
      "name": "transferFrom",
      "outputs": [
        {
          "internalType": "bool",
          "name": "",
          "type": "bool"
        }
      ],
      "stateMutability": "nonpayable",
      "type": "function"
    },
    {
      "inputs": [
        {
          "internalType": "address",
          "name": "to",
          "type": "address"
        },
        {
          "internalType": "uint256",
          "name": "amount",
          "type": "uint256"
        }
      ],
      "name": "mint",
      "outputs": [],
      "stateMutability": "nonpayable",
      "type": "function"
    },
    {
      "inputs": [
        {
          "internalType": "address",
          "name": "from",
          "type": "address"
        },
        {
          "internalType": "uint256",
          "name": "amount",
          "type": "uint256"
        }
      ],
      "name": "burn",
      "outputs": [],
      "stateMutability": "nonpayable",
      "type": "function"
    }
  ],
  "bytecode": "0x60806040523461035f57610e828038038061001981610364565b92833981019060608183031261035f5780516001600160401b03811161035f5782610045918301610389565b60208201519092906001600160401b03811161035f57604091610069918401610389565b9101516001600160a01b0381169081900361035f576002805460ff1916601217905582516001600160401b03811161026a57600054600181811c91168015610355575b602082101461024a57601f81116102f1575b506020601f821160011461028b5781929394600092610280575b50508160011b916000199060031b1c1916176000555b81516001600160401b03811161026a57600154600181811c91168015610260575b602082101461024a57601f81116101e5575b50602092601f82116001146101805792819293600092610175575b50508160011b916000199060031b1c1916176001555b600680546001600160a01b031916919091179055604051610a8d90816103f58239f35b01519050388061013c565b601f198216936001600052806000209160005b8681106101cd57508360019596106101b4575b505050811b01600155610152565b015160001960f88460031b161c191690553880806101a6565b91926020600181928685015181550194019201610193565b60016000527fb10e2d527612073b26eecdfd717e6a320cf44b4afac2b0732d9fcbe2b7fa0cf6601f830160051c81019160208410610240575b601f0160051c01905b8181106102345750610121565b60008155600101610227565b909150819061021e565b634e487b7160e01b600052602260045260246000fd5b90607f169061010f565b634e487b7160e01b600052604160045260246000fd5b0151905038806100d8565b601f1982169060008052806000209160005b8181106102d9575095836001959697106102c0575b505050811b016000556100ee565b015160001960f88460031b161c191690553880806102b2565b9192602060018192868b01518155019401920161029d565b600080527f290decd9548b62a8d60345a988386fc84ba6bc95484008f6362f93160ef3e563601f830160051c8101916020841061034b575b601f0160051c01905b81811061033f57506100be565b60008155600101610332565b9091508190610329565b90607f16906100ac565b600080fd5b6040519190601f01601f191682016001600160401b0381118382101761026a57604052565b81601f8201121561035f578051906001600160401b03821161026a576103b8601f8301601f1916602001610364565b928284526020838301011161035f5760005b8281106103df57505060206000918301015290565b806020809284010151828287010152016103ca56fe6080604052600436101561001257600080fd5b60003560e01c806306fdde031461060d578063095ea7b3146105e757806318160ddd146105c957806323b872dd14610501578063313ce567146104e057806340c10f19146103f957806370a08231146103bf5780638da5cb5b1461039657806395d89b41146102755780639dc29fac14610127578063a9059cbb146100f65763dd62ed3e146100a057600080fd5b346100f15760403660031901126100f1576100b9610710565b6100c1610726565b6001600160a01b039182166000908152600560209081526040808320949093168252928352819020549051908152f35b600080fd5b346100f15760403660031901126100f15761011c610112610710565b60243590336108c3565b602060405160018152f35b346100f15760403660031901126100f157610140610710565b6024359061015960018060a01b0360065416331461075f565b6001600160a01b031680156102245780600052600460205281604060002054106101d3577fddf252ad1be2c89b69c2b068fc378daa952ba7f163c4a11628f55a4df523b3ef602060009383855260048252604085206101b982825461073c565b90556101c78160035461073c565b600355604051908152a3005b60405162461bcd60e51b8152602060048201526024808201527f4c5045524332303a206275726e20616d6f756e7420657863656564732062616c604482015263616e636560e01b6064820152608490fd5b60405162461bcd60e51b815260206004820152602360248201527f4c5045524332303a206275726e2066726f6d20746865207a65726f206164647260448201526265737360e81b6064820152608490fd5b346100f15760003660031901126100f1576000604051816001548060011c9060018116801561038c575b6020831081146103785782855290811561035c5750600114610308575b50819003601f01601f1916810167ffffffffffffffff8111828210176102f4576102f09250604052604051918291826106c7565b0390f35b634e487b7160e01b83526041600452602483fd5b600184529050827fb10e2d527612073b26eecdfd717e6a320cf44b4afac2b0732d9fcbe2b7fa0cf65b828210610346575060209150820101836102bc565b6001816020925483858801015201910190610331565b90506020925060ff191682840152151560051b820101836102bc565b634e487b7160e01b86526022600452602486fd5b91607f169161029f565b346100f15760003660031901126100f1576006546040516001600160a01b039091168152602090f35b346100f15760203660031901126100f1576001600160a01b036103e0610710565b1660005260046020526020604060002054604051908152f35b346100f15760403660031901126100f157610412610710565b6024359061042b60018060a01b0360065416331461075f565b6001600160a01b0316908115610491577fddf252ad1be2c89b69c2b068fc378daa952ba7f163c4a11628f55a4df523b3ef60208261046d6000946003546107aa565b60035584845260048252604084206104868282546107aa565b9055604051908152a3005b60405162461bcd60e51b815260206004820152602160248201527f4c5045524332303a206d696e7420746f20746865207a65726f206164647265736044820152607360f81b6064820152608490fd5b346100f15760003660031901126100f157602060ff60025416604051908152f35b346100f15760603660031901126100f15761051a610710565b610522610726565b6001600160a01b038216600090815260056020908152604080832033845290915290205491906044358084106105715761011c936105648261056994866108c3565b61073c565b9033906107b7565b60405162461bcd60e51b815260206004820152602a60248201527f4c5045524332303a207472616e7366657220616d6f756e74206578636565647360448201526920616c6c6f77616e636560b01b6064820152608490fd5b346100f15760003660031901126100f1576020600354604051908152f35b346100f15760403660031901126100f15761011c610603610710565b60243590336107b7565b346100f15760003660031901126100f15760006040518182548060011c906001811680156106bd575b6020831081146103785782855290811561035c57506001146106865750819003601f01601f1916810167ffffffffffffffff8111828210176102f4576102f09250604052604051918291826106c7565b90508280526020832083905b8282106106a7575060209150820101836102bc565b6001816020925483858801015201910190610692565b91607f1691610636565b91909160208152825180602083015260005b8181106106fa575060409293506000838284010152601f8019910116010190565b80602080928701015160408286010152016106d9565b600435906001600160a01b03821682036100f157565b602435906001600160a01b03821682036100f157565b9190820391821161074957565b634e487b7160e01b600052601160045260246000fd5b1561076657565b606460405162461bcd60e51b815260206004820152602060248201527f4c5045524332303a2063616c6c6572206973206e6f7420746865206f776e65726044820152fd5b9190820180921161074957565b6001600160a01b031690811561086f576001600160a01b031691821561081e5760207f8c5be1e5ebec7d5bd14f71427d1e84f3dd0314c0f7b2291e5b200ac8c7c3b925918360005260058252604060002085600052825280604060002055604051908152a3565b60405162461bcd60e51b8152602060048201526024808201527f4c5045524332303a20617070726f766520746f20746865207a65726f206164646044820152637265737360e01b6064820152608490fd5b60405162461bcd60e51b815260206004820152602660248201527f4c5045524332303a20617070726f76652066726f6d20746865207a65726f206160448201526564647265737360d01b6064820152608490fd5b6001600160a01b0316908115610a02576001600160a01b03169182156109af5781600052600460205280604060002054106109595760207fddf252ad1be2c89b69c2b068fc378daa952ba7f163c4a11628f55a4df523b3ef918360005260048252604060002061093482825461073c565b90558460005260048252604060002061094e8282546107aa565b9055604051908152a3565b60405162461bcd60e51b815260206004820152602860248201527f4c5045524332303a207472616e7366657220616d6f756e7420657863656564736044820152672062616c616e636560c01b6064820152608490fd5b60405162461bcd60e51b815260206004820152602560248201527f4c5045524332303a207472616e7366657220746f20746865207a65726f206164604482015264647265737360d81b6064820152608490fd5b60405162461bcd60e51b815260206004820152602760248201527f4c5045524332303a207472616e736665722066726f6d20746865207a65726f206044820152666164647265737360c81b6064820152608490fdfea26469706673582212201aee70927c5353df2cda08f319674b78c953125314ad3eabae136623e6f5003964736f6c634300081c0033",
  "immutableReferences": {},
  "source": "// SPDX-License-Identifier: MIT\npragma solidity ^0.8.19;\n\nimport \"./IERC20.sol\";\n\n/**\n * @title LPERC20\n * @dev Implementation of ERC20 LP tokens for Project Aegis liquidity pools\n */\ncontract LPERC20 is IERC20 {\n    string public name;\n    string public symbol;\n    uint8 public decimals = 18;\n    uint256 private _totalSupply;\n    \n    mapping(address => uint256) private _balances;\n    mapping(address => mapping(address => uint256)) private _allowances;\n    \n    address public owner;\n    \n    modifier onlyOwner() {\n        require(msg.sender == owner, \"LPERC20: caller is not the owner\");\n        _;\n    }\n    \n    constructor(string memory _name, string memory _symbol, address _owner) {\n        name = _name;\n        symbol = _symbol;\n        owner = _owner;\n    }\n    \n    function totalSupply() external view override returns (uint256) {\n        return _totalSupply;\n    }\n    \n    function balanceOf(address account) external view override returns (uint256) {\n        return _balances[account];\n    }\n    \n    function transfer(address to, uint256 amount) external override returns (bool) {\n        _transfer(msg.sender, to, amount);\n        return true;\n    }\n    \n    function allowance(address ownerAddr, address spender) external view override returns (uint256) {\n        return _allowances[ownerAddr][spender];\n    }\n    \n    function approve(address spender, uint256 amount) external override returns (bool) {\n        _approve(msg.sender, spender, amount);\n        return true;\n    }\n    \n    function transferFrom(address from, address to, uint256 amount) external override returns (bool) {\n        uint256 currentAllowance = _allowances[from][msg.sender];\n        require(currentAllowance >= amount, \"LPERC20: transfer amount exceeds allowance\");\n        \n        _transfer(from, to, amount);\n        _approve(from, msg.sender, currentAllowance - amount);\n        \n        return true;\n    }\n    \n    /**\n     * @dev Mint tokens to an address (only callable by owner - LiquidityPool contract)\n     */\n    function mint(address to, uint256 amount) external onlyOwner {\n        require(to != address(0), \"LPERC20: mint to the zero address\");\n        \n        _totalSupply += amount;\n        _balances[to] += amount;\n        \n        emit Transfer(address(0), to, amount);\n    }\n    \n    /**\n     * @dev Burn tokens from an address (only callable by owner - LiquidityPool contract)\n     */\n    function burn(address from, uint256 amount) external onlyOwner {\n        require(from != address(0), \"LPERC20: burn from the zero address\");\n        require(_balances[from] >= amount, \"LPERC20: burn amount exceeds balance\");\n        \n        _balances[from] -= amount;\n        _totalSupply -= amount;\n        \n        emit Transfer(from, address(0), amount);\n    }\n    \n    function _transfer(address from, address to, uint256 amount) internal {\n        require(from != address(0), \"LPERC20: transfer from the zero address\");\n        require(to != address(0), \"LPERC20: transfer to the zero address\");\n        require(_balances[from] >= amount, \"LPERC20: transfer amount exceeds balance\");\n        \n        _balances[from] -= amount;\n        _balances[to] += amount;\n        \n        emit Transfer(from, to, amount);\n    }\n    \n    function _approve(address ownerAddr, address spender, uint256 amount) internal {\n        require(ownerAddr != address(0), \"LPERC20: approve from the zero address\");\n        require(spender != address(0), \"LPERC20: approve to the zero address\");\n        \n        _allowances[ownerAddr][spender] = amount;\n        emit Approval(ownerAddr, spender, amount);\n    }\n}",
  "sourcePath": "/Users/sohamsamal/Desktop/Coding/Hackathon Projects/Hackon/Ageis-Blockchain/truffle-project/contracts/LPERC20.sol",
  "compiler": {
    "name": "solc",
    "version": "0.8.28+commit.7893614a.Emscripten.clang"
  },
  "schemaVersion": "3.4.16",
  "updatedAt": "2025-06-21T17:17:42.909Z",
  "devdoc": {
    "details": "Implementation of ERC20 LP tokens for Project Aegis liquidity pools",
    "events": {
      "Approval(address,address,uint256)": {
        "details": "Emitted when the allowance of a `spender` for an `owner` is set by a call to {approve}. `value` is the new allowance."
      },
      "Transfer(address,address,uint256)": {
        "details": "Emitted when `value` tokens are moved from one account (`from`) to another (`to`). Note that `value` may be zero."
      }
    },
    "kind": "dev",
    "methods": {
      "approve(address,uint256)": {
        "details": "Sets `amount` as the allowance of `spender` over the caller's tokens. Returns a boolean value indicating whether the operation succeeded. IMPORTANT: Beware that changing an allowance with this method brings the risk that someone may use both the old and the new allowance by unfortunate transaction ordering. One possible solution to mitigate this race condition is to first reduce the spender's allowance to 0 and set the desired value afterwards: https://github.com/ethereum/EIPs/issues/20#issuecomment-263524729 Emits an {Approval} event."
      },
      "balanceOf(address)": {
        "details": "Returns the amount of tokens owned by `account`."
      },
      "burn(address,uint256)": {
        "details": "Burn tokens from an address (only callable by owner - LiquidityPool contract)"
      },
      "mint(address,uint256)": {
        "details": "Mint tokens to an address (only callable by owner - LiquidityPool contract)"
      },
      "totalSupply()": {
        "details": "Returns the amount of tokens in existence."
      },
      "transfer(address,uint256)": {
        "details": "Moves `amount` tokens from the caller's account to `to`. Returns a boolean value indicating whether the operation succeeded. Emits a {Transfer} event."
      },
      "transferFrom(address,address,uint256)": {
        "details": "Moves `amount` tokens from `from` to `to` using the allowance mechanism. `amount` is then deducted from the caller's allowance. Returns a boolean value indicating whether the operation succeeded. Emits a {Transfer} event."
      }
    },
    "title": "LPERC20",
    "version": 1
  },
  "userdoc": {
    "kind": "user",
    "methods": {},
    "version": 1
  }
}